{
  "contractName": "Decoder",
  "abi": [
    {
      "inputs": [
        {
          "internalType": "bytes",
          "name": "data",
          "type": "bytes"
        }
      ],
      "name": "decodeUint256",
      "outputs": [
        {
          "internalType": "uint256",
          "name": "",
          "type": "uint256"
        }
      ],
      "stateMutability": "pure",
      "type": "function",
      "constant": true
    }
  ],
  "bytecode": "0x610199610026600b82828239805160001a60731461001957fe5b30600052607381538281f3fe73000000000000000000000000000000000000000030146080604052600436106100355760003560e01c80636d78dc9c1461003a575b600080fd5b6100f36004803603602081101561005057600080fd5b810190808035906020019064010000000081111561006d57600080fd5b82018360208201111561007f57600080fd5b803590602001918460018302840111640100000000831117156100a157600080fd5b91908080601f016020809104026020016040519081016040528093929190818152602001838380828437600081840152601f19601f820116905080830192505050505050509192919290505050610109565b6040518082815260200191505060405180910390f35b6000806000835190505b6000811115610159576001810360080260020a84600183038151811061013557fe5b602001015160f81c60f81b60f81c60ff160282019150808060019003915050610113565b508091505091905056fea26469706673582212208c4b9f277b2ad21af3257fa781d7ee13eb97c7826a87a8cdbb7ecc8c296f998864736f6c63430006020033",
  "source": "// SPDX-License-Identifier: MIT\npragma solidity >=0.6.2;\n\nlibrary Decoder {\n\n    // Decodes a SCALE encoded uint256 by converting bytes (bid endian) to little endian format\n    function decodeUint256(bytes memory data)\n        public\n        pure\n        returns (uint256)\n    {\n        uint256 number;\n        for(uint i = data.length; i > 0; i--) {\n            number = number + uint(uint8(data[i-1])) * (2 ** (8 * (i-1)));\n        }\n        return number;\n    }\n\n    // Slice a section from a byte array.\n    // Inspired by github.com/GNSPS/solidity-bytes-utils/blob/master/contracts/BytesLib.sol.\n    function slice(bytes memory _bytes, uint256 _start, uint256 _length) internal pure returns (bytes memory) {\n        require(_bytes.length >= (_start + _length), \"Read out of bounds\");\n\n        bytes memory temp;\n\n        assembly {\n            switch iszero(_length)\n            case 0 {\n                // Get a location of some free memory and store it in temp\n                temp := mload(0x40)\n\n                let lengthmod := and(_length, 31)\n\n                // Multiply to prevent the copy loop from ending prematurely\n                let mc := add(add(temp, lengthmod), mul(0x20, iszero(lengthmod)))\n                let end := add(mc, _length)\n\n                for {\n                    // Again, multiply to prevent the copy loop from ending prematurely\n                    let cc := add(add(add(_bytes, lengthmod), mul(0x20, iszero(lengthmod))), _start)\n                } lt(mc, end) {\n                    mc := add(mc, 0x20)\n                    cc := add(cc, 0x20)\n                } {\n                    mstore(mc, mload(cc))\n                }\n\n                mstore(temp, _length)\n                // Allocate the array padded to 32 bytes\n                mstore(0x40, and(add(mc, 31), not(31)))\n            }\n            // If we want a zero-length slice let's just return a zero-length array\n            default {\n                temp := mload(0x40)\n                mstore(0x40, add(temp, 0x20))\n            }\n        }\n        return temp;\n    }\n\n    // Slice 20 bytes and cast to an address\n    function sliceAddress(bytes memory _bytes, uint256 _start) internal pure returns (address payable) {\n        require(_bytes.length >= (_start + 20), \"Read out of bounds\");\n\n        address payable temp;\n        assembly {\n            temp := div(mload(add(add(_bytes, 0x20), _start)), 0x1000000000000000000000000)\n        }\n        return temp;\n    }\n}\n",
  "sourcePath": "C:\\Users\\Gleb Urvanov\\workspace\\polkadot-ethereum\\ethereum\\contracts\\Decoder.sol",
  "compiler": {
    "name": "solc",
    "version": "0.6.2+commit.bacdbe57.Emscripten.clang"
  },
  "schemaVersion": "3.3.2",
  "updatedAt": "2020-11-18T09:00:28.662Z",
  "networkType": "ethereum",
  "devdoc": {
    "methods": {}
  },
  "userdoc": {
    "methods": {}
  }
}